{
  "_format": "hh-sol-artifact-1",
  "contractName": "HalalRegistry",
  "sourceName": "contracts/HalalRegistry.sol",
  "abi": [
    {
      "inputs": [
        {
          "internalType": "address",
          "name": "_roleManager",
          "type": "address"
        }
      ],
      "stateMutability": "nonpayable",
      "type": "constructor"
    },
    {
      "inputs": [],
      "name": "CertificateExpired",
      "type": "error"
    },
    {
      "inputs": [
        {
          "internalType": "bytes32",
          "name": "certificateId",
          "type": "bytes32"
        }
      ],
      "name": "CertificateNotFound",
      "type": "error"
    },
    {
      "inputs": [],
      "name": "NotAuthorized",
      "type": "error"
    },
    {
      "inputs": [
        {
          "internalType": "bytes32",
          "name": "productId",
          "type": "bytes32"
        }
      ],
      "name": "ProductAlreadyExists",
      "type": "error"
    },
    {
      "inputs": [
        {
          "internalType": "bytes32",
          "name": "productId",
          "type": "bytes32"
        }
      ],
      "name": "ProductNotFound",
      "type": "error"
    },
    {
      "anonymous": false,
      "inputs": [
        {
          "indexed": true,
          "internalType": "bytes32",
          "name": "productId",
          "type": "bytes32"
        },
        {
          "indexed": true,
          "internalType": "bytes32",
          "name": "certificateId",
          "type": "bytes32"
        },
        {
          "indexed": false,
          "internalType": "string",
          "name": "issuingBody",
          "type": "string"
        },
        {
          "indexed": false,
          "internalType": "uint256",
          "name": "expiresAt",
          "type": "uint256"
        }
      ],
      "name": "CertificateIssued",
      "type": "event"
    },
    {
      "anonymous": false,
      "inputs": [
        {
          "indexed": true,
          "internalType": "bytes32",
          "name": "certificateId",
          "type": "bytes32"
        },
        {
          "indexed": true,
          "internalType": "bytes32",
          "name": "productId",
          "type": "bytes32"
        },
        {
          "indexed": false,
          "internalType": "uint256",
          "name": "timestamp",
          "type": "uint256"
        }
      ],
      "name": "CertificateRevoked",
      "type": "event"
    },
    {
      "anonymous": false,
      "inputs": [
        {
          "indexed": true,
          "internalType": "bytes32",
          "name": "productId",
          "type": "bytes32"
        },
        {
          "indexed": true,
          "internalType": "address",
          "name": "manufacturer",
          "type": "address"
        },
        {
          "indexed": false,
          "internalType": "string",
          "name": "name",
          "type": "string"
        },
        {
          "indexed": false,
          "internalType": "uint256",
          "name": "timestamp",
          "type": "uint256"
        }
      ],
      "name": "ProductRegistered",
      "type": "event"
    },
    {
      "inputs": [
        {
          "internalType": "bytes32",
          "name": "",
          "type": "bytes32"
        }
      ],
      "name": "certificates",
      "outputs": [
        {
          "internalType": "bytes32",
          "name": "certificateId",
          "type": "bytes32"
        },
        {
          "internalType": "bytes32",
          "name": "productId",
          "type": "bytes32"
        },
        {
          "internalType": "string",
          "name": "issuingBody",
          "type": "string"
        },
        {
          "internalType": "uint256",
          "name": "issuedAt",
          "type": "uint256"
        },
        {
          "internalType": "uint256",
          "name": "expiresAt",
          "type": "uint256"
        },
        {
          "internalType": "bool",
          "name": "isValid",
          "type": "bool"
        }
      ],
      "stateMutability": "view",
      "type": "function"
    },
    {
      "inputs": [],
      "name": "getAllProductIds",
      "outputs": [
        {
          "internalType": "bytes32[]",
          "name": "",
          "type": "bytes32[]"
        }
      ],
      "stateMutability": "view",
      "type": "function"
    },
    {
      "inputs": [
        {
          "internalType": "bytes32",
          "name": "certificateId",
          "type": "bytes32"
        }
      ],
      "name": "getCertificate",
      "outputs": [
        {
          "components": [
            {
              "internalType": "bytes32",
              "name": "certificateId",
              "type": "bytes32"
            },
            {
              "internalType": "bytes32",
              "name": "productId",
              "type": "bytes32"
            },
            {
              "internalType": "string",
              "name": "issuingBody",
              "type": "string"
            },
            {
              "internalType": "uint256",
              "name": "issuedAt",
              "type": "uint256"
            },
            {
              "internalType": "uint256",
              "name": "expiresAt",
              "type": "uint256"
            },
            {
              "internalType": "bool",
              "name": "isValid",
              "type": "bool"
            }
          ],
          "internalType": "struct HalalRegistry.Certificate",
          "name": "",
          "type": "tuple"
        }
      ],
      "stateMutability": "view",
      "type": "function"
    },
    {
      "inputs": [
        {
          "internalType": "bytes32",
          "name": "productId",
          "type": "bytes32"
        }
      ],
      "name": "getProduct",
      "outputs": [
        {
          "components": [
            {
              "internalType": "bytes32",
              "name": "productId",
              "type": "bytes32"
            },
            {
              "internalType": "string",
              "name": "name",
              "type": "string"
            },
            {
              "internalType": "address",
              "name": "registeredBy",
              "type": "address"
            },
            {
              "internalType": "uint256",
              "name": "registeredAt",
              "type": "uint256"
            },
            {
              "internalType": "bool",
              "name": "isHalalCertified",
              "type": "bool"
            },
            {
              "internalType": "bytes32",
              "name": "certificateId",
              "type": "bytes32"
            },
            {
              "internalType": "bool",
              "name": "exists",
              "type": "bool"
            }
          ],
          "internalType": "struct HalalRegistry.Product",
          "name": "",
          "type": "tuple"
        }
      ],
      "stateMutability": "view",
      "type": "function"
    },
    {
      "inputs": [],
      "name": "getProductCount",
      "outputs": [
        {
          "internalType": "uint256",
          "name": "",
          "type": "uint256"
        }
      ],
      "stateMutability": "view",
      "type": "function"
    },
    {
      "inputs": [
        {
          "internalType": "bytes32",
          "name": "productId",
          "type": "bytes32"
        }
      ],
      "name": "isHalalCertified",
      "outputs": [
        {
          "internalType": "bool",
          "name": "",
          "type": "bool"
        }
      ],
      "stateMutability": "view",
      "type": "function"
    },
    {
      "inputs": [
        {
          "internalType": "bytes32",
          "name": "productId",
          "type": "bytes32"
        },
        {
          "internalType": "bytes32",
          "name": "certificateId",
          "type": "bytes32"
        },
        {
          "internalType": "string",
          "name": "issuingBody",
          "type": "string"
        },
        {
          "internalType": "uint256",
          "name": "expiresAt",
          "type": "uint256"
        }
      ],
      "name": "issueCertificate",
      "outputs": [],
      "stateMutability": "nonpayable",
      "type": "function"
    },
    {
      "inputs": [
        {
          "internalType": "bytes32",
          "name": "",
          "type": "bytes32"
        }
      ],
      "name": "products",
      "outputs": [
        {
          "internalType": "bytes32",
          "name": "productId",
          "type": "bytes32"
        },
        {
          "internalType": "string",
          "name": "name",
          "type": "string"
        },
        {
          "internalType": "address",
          "name": "registeredBy",
          "type": "address"
        },
        {
          "internalType": "uint256",
          "name": "registeredAt",
          "type": "uint256"
        },
        {
          "internalType": "bool",
          "name": "isHalalCertified",
          "type": "bool"
        },
        {
          "internalType": "bytes32",
          "name": "certificateId",
          "type": "bytes32"
        },
        {
          "internalType": "bool",
          "name": "exists",
          "type": "bool"
        }
      ],
      "stateMutability": "view",
      "type": "function"
    },
    {
      "inputs": [
        {
          "internalType": "bytes32",
          "name": "productId",
          "type": "bytes32"
        },
        {
          "internalType": "string",
          "name": "name",
          "type": "string"
        }
      ],
      "name": "registerProduct",
      "outputs": [],
      "stateMutability": "nonpayable",
      "type": "function"
    },
    {
      "inputs": [
        {
          "internalType": "bytes32",
          "name": "certificateId",
          "type": "bytes32"
        }
      ],
      "name": "revokeCertificate",
      "outputs": [],
      "stateMutability": "nonpayable",
      "type": "function"
    },
    {
      "inputs": [],
      "name": "roleManager",
      "outputs": [
        {
          "internalType": "contract RoleManager",
          "name": "",
          "type": "address"
        }
      ],
      "stateMutability": "view",
      "type": "function"
    }
  ],
  "bytecode": "0x608060405234801561001057600080fd5b5060405161126838038061126883398101604081905261002f91610054565b600080546001600160a01b0319166001600160a01b0392909216919091179055610084565b60006020828403121561006657600080fd5b81516001600160a01b038116811461007d57600080fd5b9392505050565b6111d5806100936000396000f3fe608060405234801561001057600080fd5b50600436106100a75760003560e01c8063663c01af11610071578063663c01af14610145578063742f06881461015a578063790543911461017f578063a1de2557146101a5578063c6cbc52a146101b8578063f333fe08146101cb57600080fd5b8062435da5146100ac57806281247c146100dc57806311ac23a6146100ff5780633a20e9df146101145780634a348da914610134575b600080fd5b6000546100bf906001600160a01b031681565b6040516001600160a01b0390911681526020015b60405180910390f35b6100ef6100ea366004610cb4565b6101eb565b60405190151581526020016100d3565b61011261010d366004610d16565b610261565b005b610127610122366004610cb4565b610456565b6040516100d39190610db7565b6003546040519081526020016100d3565b61014d6105c6565b6040516100d39190610e28565b61016d610168366004610cb4565b61061e565b6040516100d396959493929190610e6c565b61019261018d366004610cb4565b6106e2565b6040516100d39796959493929190610eab565b6101126101b3366004610ef9565b6107b5565b6101126101c6366004610cb4565b610a72565b6101de6101d9366004610cb4565b610b93565b6040516100d39190610f45565b60008181526001602052604081206006015460ff1661020c57506000919050565b6000828152600160205260409020600481015460ff1661022f5750600092915050565b60058082015460009081526002602052604090209081015460ff1680156102595750428160040154115b949350505050565b600054604051630935e01b60e21b81523360048201526001600160a01b03909116906324d7806c90602401602060405180830381865afa1580156102a9573d6000803e3d6000fd5b505050506040513d601f19601f820116820180604052508101906102cd9190610fa1565b6102ea5760405163ea8e4eb560e01b815260040160405180910390fd5b60008581526001602052604090206006015460ff166103245760405163b9780c7f60e01b8152600481018690526024015b60405180910390fd5b6040518060c0016040528085815260200186815260200184848080601f016020809104026020016040519081016040528093929190818152602001838380828437600092018290525093855250504260208085019190915260408085018790526001606090950185905289845260028083529381902086518155918601519482019490945592840151918301916103bc91508261106b565b5060608201516003820155608082015160048083019190915560a0909201516005918201805491151560ff19928316179055600088815260016020819052604091829020948501805490931617909155910185905551849086907f672830865a12c559f67a4d1e6bab3fbe6d496aace5f2153a75cf3f4eefebf001906104479087908790879061112b565b60405180910390a35050505050565b6040805160e08101825260008082526060602083018190529282018190529181018290526080810182905260a0810182905260c081019190915260008281526001602052604090206006015460ff166104c55760405163b9780c7f60e01b81526004810183905260240161031b565b600082815260016020818152604092839020835160e08101909452805484529182018054918401916104f690610fe0565b80601f016020809104026020016040519081016040528092919081815260200182805461052290610fe0565b801561056f5780601f106105445761010080835404028352916020019161056f565b820191906000526020600020905b81548152906001019060200180831161055257829003601f168201915b505050918352505060028201546001600160a01b0316602082015260038201546040820152600482015460ff9081161515606083015260058301546080830152600690920154909116151560a09091015292915050565b6060600380548060200260200160405190810160405280929190818152602001828054801561061457602002820191906000526020600020905b815481526020019060010190808311610600575b5050505050905090565b60026020819052600091825260409091208054600182015492820180549193929161064890610fe0565b80601f016020809104026020016040519081016040528092919081815260200182805461067490610fe0565b80156106c15780601f10610696576101008083540402835291602001916106c1565b820191906000526020600020905b8154815290600101906020018083116106a457829003601f168201915b50505050600383015460048401546005909401549293909290915060ff1686565b60016020819052600091825260409091208054918101805461070390610fe0565b80601f016020809104026020016040519081016040528092919081815260200182805461072f90610fe0565b801561077c5780601f106107515761010080835404028352916020019161077c565b820191906000526020600020905b81548152906001019060200180831161075f57829003601f168201915b505050600284015460038501546004860154600587015460069097015495966001600160a01b039093169591945060ff90811693501687565b6000546040516395a8c58d60e01b81526001600160a01b03909116906395a8c58d906107e8903390600390600401611164565b602060405180830381865afa158015610805573d6000803e3d6000fd5b505050506040513d601f19601f820116820180604052508101906108299190610fa1565b15801561089f5750600054604051630935e01b60e21b81523360048201526001600160a01b03909116906324d7806c90602401602060405180830381865afa158015610879573d6000803e3d6000fd5b505050506040513d601f19601f8201168201806040525081019061089d9190610fa1565b155b156108bd5760405163ea8e4eb560e01b815260040160405180910390fd5b60008381526001602052604090206006015460ff16156108f357604051633cef866760e01b81526004810184905260240161031b565b6040518060e0016040528084815260200183838080601f0160208091040260200160405190810160405280939291908181526020018383808284376000920182905250938552505033602080850191909152426040808601919091526060850184905260808501849052600160a09095018590528884528482529092208451815591840151919283019161098891508261106b565b506040828101516002830180546001600160a01b039092166001600160a01b03199092169190911790556060830151600380840191909155608084015160048401805491151560ff1992831617905560a0850151600585015560c09094015160069093018054931515939094169290921790925580546001810182556000919091527fc2575a0e9e593c00f959f8c92f12db2869c3395a3b0502d05e2516446f71f85b0184905551339084907f665dd78c549d1aff662435370f9d579e60d53a954ad8b6f242771fffa8ea46b590610a659086908690429061112b565b60405180910390a3505050565b600054604051630935e01b60e21b81523360048201526001600160a01b03909116906324d7806c90602401602060405180830381865afa158015610aba573d6000803e3d6000fd5b505050506040513d601f19601f82011682018060405250810190610ade9190610fa1565b610afb5760405163ea8e4eb560e01b815260040160405180910390fd5b60008181526002602052604090208054610b2b57604051630eb0bcc760e31b81526004810183905260240161031b565b60058101805460ff199081169091556001808301805460009081526020928352604090819020600401805490941690935554915142815284917f76c77c00cad02c91e818e2de096caa106ff6fc5f2572835c7c33ddd11c62b0b7910160405180910390a35050565b6040805160c08101825260008082526020820181905260609282018390529181018290526080810182905260a0810191909152600260008381526020019081526020016000206040518060c00160405290816000820154815260200160018201548152602001600282018054610c0890610fe0565b80601f0160208091040260200160405190810160405280929190818152602001828054610c3490610fe0565b8015610c815780601f10610c5657610100808354040283529160200191610c81565b820191906000526020600020905b815481529060010190602001808311610c6457829003601f168201915b5050509183525050600382015460208201526004820154604082015260059091015460ff16151560609091015292915050565b600060208284031215610cc657600080fd5b5035919050565b60008083601f840112610cdf57600080fd5b50813567ffffffffffffffff811115610cf757600080fd5b602083019150836020828501011115610d0f57600080fd5b9250929050565b600080600080600060808688031215610d2e57600080fd5b8535945060208601359350604086013567ffffffffffffffff811115610d5357600080fd5b610d5f88828901610ccd565b96999598509660600135949350505050565b6000815180845260005b81811015610d9757602081850181015186830182015201610d7b565b506000602082860101526020601f19601f83011685010191505092915050565b60208152815160208201526000602083015160e06040840152610dde610100840182610d71565b905060018060a01b036040850151166060840152606084015160808401526080840151151560a084015260a084015160c084015260c0840151151560e08401528091505092915050565b6020808252825182820181905260009190848201906040850190845b81811015610e6057835183529284019291840191600101610e44565b50909695505050505050565b86815285602082015260c060408201526000610e8b60c0830187610d71565b6060830195909552506080810192909252151560a0909101529392505050565b87815260e060208201526000610ec460e0830189610d71565b6001600160a01b03979097166040830152506060810194909452911515608084015260a0830152151560c09091015292915050565b600080600060408486031215610f0e57600080fd5b83359250602084013567ffffffffffffffff811115610f2c57600080fd5b610f3886828701610ccd565b9497909650939450505050565b6020815281516020820152602082015160408201526000604083015160c06060840152610f7560e0840182610d71565b905060608401516080840152608084015160a084015260a0840151151560c08401528091505092915050565b600060208284031215610fb357600080fd5b81518015158114610fc357600080fd5b9392505050565b634e487b7160e01b600052604160045260246000fd5b600181811c90821680610ff457607f821691505b60208210810361101457634e487b7160e01b600052602260045260246000fd5b50919050565b601f821115611066576000816000526020600020601f850160051c810160208610156110435750805b601f850160051c820191505b818110156110625782815560010161104f565b5050505b505050565b815167ffffffffffffffff81111561108557611085610fca565b611099816110938454610fe0565b8461101a565b602080601f8311600181146110ce57600084156110b65750858301515b600019600386901b1c1916600185901b178555611062565b600085815260208120601f198616915b828110156110fd578886015182559484019460019091019084016110de565b508582101561111b5787850151600019600388901b60f8161c191681555b5050505050600190811b01905550565b604081528260408201528284606083013760006060848301015260006060601f19601f8601168301019050826020830152949350505050565b6001600160a01b0383168152604081016006831061119257634e487b7160e01b600052602160045260246000fd5b826020830152939250505056fea2646970667358221220144debb708678411308ac33488ec6330d7dc97ef40d115fece3c3112967ce6c064736f6c63430008180033",
  "linkReferences": {},
  "deployedLinkReferences": {}
}