{
  "_format": "hh-sol-artifact-1",
  "contractName": "SupplyChainTracker",
  "sourceName": "contracts/SupplyChainTracker.sol",
  "abi": [
    {
      "inputs": [
        {
          "internalType": "address",
          "name": "_roleManager",
          "type": "address"
        }
      ],
      "stateMutability": "nonpayable",
      "type": "constructor"
    },
    {
      "inputs": [],
      "name": "NotAuthorized",
      "type": "error"
    },
    {
      "inputs": [
        {
          "internalType": "enum RoleManager.Role",
          "name": "role",
          "type": "uint8"
        },
        {
          "internalType": "enum SupplyChainTracker.EventType",
          "name": "eventType",
          "type": "uint8"
        }
      ],
      "name": "RoleNotPermittedForEventType",
      "type": "error"
    },
    {
      "anonymous": false,
      "inputs": [
        {
          "indexed": true,
          "internalType": "bytes32",
          "name": "productId",
          "type": "bytes32"
        },
        {
          "indexed": true,
          "internalType": "bytes32",
          "name": "eventId",
          "type": "bytes32"
        },
        {
          "indexed": false,
          "internalType": "enum SupplyChainTracker.EventType",
          "name": "eventType",
          "type": "uint8"
        },
        {
          "indexed": true,
          "internalType": "address",
          "name": "actor",
          "type": "address"
        },
        {
          "indexed": false,
          "internalType": "uint256",
          "name": "timestamp",
          "type": "uint256"
        },
        {
          "indexed": false,
          "internalType": "string",
          "name": "location",
          "type": "string"
        },
        {
          "indexed": false,
          "internalType": "string",
          "name": "notes",
          "type": "string"
        }
      ],
      "name": "SupplyChainEventRecorded",
      "type": "event"
    },
    {
      "inputs": [
        {
          "internalType": "bytes32",
          "name": "productId",
          "type": "bytes32"
        },
        {
          "internalType": "uint256",
          "name": "index",
          "type": "uint256"
        }
      ],
      "name": "getEvent",
      "outputs": [
        {
          "components": [
            {
              "internalType": "bytes32",
              "name": "eventId",
              "type": "bytes32"
            },
            {
              "internalType": "bytes32",
              "name": "productId",
              "type": "bytes32"
            },
            {
              "internalType": "enum SupplyChainTracker.EventType",
              "name": "eventType",
              "type": "uint8"
            },
            {
              "internalType": "address",
              "name": "actor",
              "type": "address"
            },
            {
              "internalType": "uint256",
              "name": "timestamp",
              "type": "uint256"
            },
            {
              "internalType": "string",
              "name": "location",
              "type": "string"
            },
            {
              "internalType": "string",
              "name": "notes",
              "type": "string"
            }
          ],
          "internalType": "struct SupplyChainTracker.ChainEvent",
          "name": "",
          "type": "tuple"
        }
      ],
      "stateMutability": "view",
      "type": "function"
    },
    {
      "inputs": [
        {
          "internalType": "bytes32",
          "name": "productId",
          "type": "bytes32"
        }
      ],
      "name": "getEventCount",
      "outputs": [
        {
          "internalType": "uint256",
          "name": "",
          "type": "uint256"
        }
      ],
      "stateMutability": "view",
      "type": "function"
    },
    {
      "inputs": [
        {
          "internalType": "bytes32",
          "name": "productId",
          "type": "bytes32"
        }
      ],
      "name": "getProductHistory",
      "outputs": [
        {
          "components": [
            {
              "internalType": "bytes32",
              "name": "eventId",
              "type": "bytes32"
            },
            {
              "internalType": "bytes32",
              "name": "productId",
              "type": "bytes32"
            },
            {
              "internalType": "enum SupplyChainTracker.EventType",
              "name": "eventType",
              "type": "uint8"
            },
            {
              "internalType": "address",
              "name": "actor",
              "type": "address"
            },
            {
              "internalType": "uint256",
              "name": "timestamp",
              "type": "uint256"
            },
            {
              "internalType": "string",
              "name": "location",
              "type": "string"
            },
            {
              "internalType": "string",
              "name": "notes",
              "type": "string"
            }
          ],
          "internalType": "struct SupplyChainTracker.ChainEvent[]",
          "name": "",
          "type": "tuple[]"
        }
      ],
      "stateMutability": "view",
      "type": "function"
    },
    {
      "inputs": [
        {
          "internalType": "bytes32",
          "name": "productId",
          "type": "bytes32"
        },
        {
          "internalType": "enum SupplyChainTracker.EventType",
          "name": "eventType",
          "type": "uint8"
        },
        {
          "internalType": "string",
          "name": "location",
          "type": "string"
        },
        {
          "internalType": "string",
          "name": "notes",
          "type": "string"
        }
      ],
      "name": "recordEvent",
      "outputs": [],
      "stateMutability": "nonpayable",
      "type": "function"
    },
    {
      "inputs": [],
      "name": "roleManager",
      "outputs": [
        {
          "internalType": "contract RoleManager",
          "name": "",
          "type": "address"
        }
      ],
      "stateMutability": "view",
      "type": "function"
    }
  ],
  "bytecode": "0x608060405234801561001057600080fd5b50604051610f5a380380610f5a83398101604081905261002f91610054565b600080546001600160a01b0319166001600160a01b0392909216919091179055610084565b60006020828403121561006657600080fd5b81516001600160a01b038116811461007d57600080fd5b9392505050565b610ec7806100936000396000f3fe608060405234801561001057600080fd5b50600436106100565760003560e01c8062435da51461005b5780632ed8dcf71461008b578063cb98aa07146100b9578063e43f30a4146100ce578063ed098a5b146100ee575b600080fd5b60005461006e906001600160a01b031681565b6040516001600160a01b0390911681526020015b60405180910390f35b6100ab61009936600461099c565b60009081526001602052604090205490565b604051908152602001610082565b6100cc6100c73660046109fe565b61010e565b005b6100e16100dc36600461099c565b6103bc565b6040516100829190610b78565b6101016100fc366004610bdc565b6105c4565b6040516100829190610bfe565b60008054604051634427673360e01b81523360048201526001600160a01b0390911690634427673390602401602060405180830381865afa158015610157573d6000803e3d6000fd5b505050506040513d601f19601f8201168201806040525081019061017b9190610c18565b9050600081600581111561019157610191610a8e565b036101af5760405163ea8e4eb560e01b815260040160405180910390fd5b6101b981876107e4565b600087873342436040516020016101d4959493929190610c39565b60408051601f19818403018152828252805160209182012060008c81526001835283902060e0850184528185529184018c905293509190810189600881111561021f5761021f610a8e565b8152602001336001600160a01b0316815260200142815260200188888080601f016020809104026020016040519081016040528093929190818152602001838380828437600092019190915250505090825250604080516020601f8901819004810282018101909252878152918101919088908890819084018382808284376000920182905250939094525050835460018181018655948252602091829020845160069092020190815590830151818501556040830151600282018054949592949193509160ff19909116908360088111156102fd576102fd610a8e565b021790555060608201516002820180546001600160a01b0390921661010002610100600160a81b03199092169190911790556080820151600382015560a0820151600482019061034d9082610d27565b5060c082015160058201906103629082610d27565b505050336001600160a01b031681897f1c70357e9b7f1a07c8ed4ac894508b8a08b5ab70b76bb1a6d8806a1a9aaa59dc8a428b8b8b8b6040516103aa96959493929190610e10565b60405180910390a45050505050505050565b606060016000838152602001908152602001600020805480602002602001604051908101604052809291908181526020016000905b828210156105b957838290600052602060002090600602016040518060e001604052908160008201548152602001600182015481526020016002820160009054906101000a900460ff16600881111561044c5761044c610a8e565b600881111561045d5761045d610a8e565b8152600282015461010090046001600160a01b031660208201526003820154604082015260048201805460609092019161049690610c9c565b80601f01602080910402602001604051908101604052809291908181526020018280546104c290610c9c565b801561050f5780601f106104e45761010080835404028352916020019161050f565b820191906000526020600020905b8154815290600101906020018083116104f257829003601f168201915b5050505050815260200160058201805461052890610c9c565b80601f016020809104026020016040519081016040528092919081815260200182805461055490610c9c565b80156105a15780601f10610576576101008083540402835291602001916105a1565b820191906000526020600020905b81548152906001019060200180831161058457829003601f168201915b505050505081525050815260200190600101906103f1565b505050509050919050565b61060d6040805160e0810182526000808252602082018190529091820190815260200160006001600160a01b031681526020016000815260200160608152602001606081525090565b600083815260016020526040902080548390811061062d5761062d610e57565b90600052602060002090600602016040518060e001604052908160008201548152602001600182015481526020016002820160009054906101000a900460ff16600881111561067e5761067e610a8e565b600881111561068f5761068f610a8e565b8152600282015461010090046001600160a01b03166020820152600382015460408201526004820180546060909201916106c890610c9c565b80601f01602080910402602001604051908101604052809291908181526020018280546106f490610c9c565b80156107415780601f1061071657610100808354040283529160200191610741565b820191906000526020600020905b81548152906001019060200180831161072457829003601f168201915b5050505050815260200160058201805461075a90610c9c565b80601f016020809104026020016040519081016040528092919081815260200182805461078690610c9c565b80156107d35780601f106107a8576101008083540402835291602001916107d3565b820191906000526020600020905b8154815290600101906020018083116107b657829003601f168201915b505050505081525050905092915050565b60018260058111156107f8576107f8610a8e565b03610801575050565b600282600581111561081557610815610a8e565b0361085d57600081600881111561082e5761082e610a8e565b14610859578181604051630131a56b60e01b8152600401610850929190610e6d565b60405180910390fd5b5050565b600382600581111561087157610871610a8e565b036108eb57600181600881111561088a5761088a610a8e565b141580156108aa575060028160088111156108a7576108a7610a8e565b14155b80156108c9575060035b8160088111156108c6576108c6610a8e565b14155b15610859578181604051630131a56b60e01b8152600401610850929190610e6d565b60048260058111156108ff576108ff610a8e565b0361094657600481600881111561091857610918610a8e565b141580156109385750600581600881111561093557610935610a8e565b14155b80156108c9575060066108b4565b600582600581111561095a5761095a610a8e565b0361098357600781600881111561097357610973610a8e565b141580156108c9575060086108b4565b60405163ea8e4eb560e01b815260040160405180910390fd5b6000602082840312156109ae57600080fd5b5035919050565b60008083601f8401126109c757600080fd5b50813567ffffffffffffffff8111156109df57600080fd5b6020830191508360208285010111156109f757600080fd5b9250929050565b60008060008060008060808789031215610a1757600080fd5b86359550602087013560098110610a2d57600080fd5b9450604087013567ffffffffffffffff80821115610a4a57600080fd5b610a568a838b016109b5565b90965094506060890135915080821115610a6f57600080fd5b50610a7c89828a016109b5565b979a9699509497509295939492505050565b634e487b7160e01b600052602160045260246000fd5b60098110610ab457610ab4610a8e565b9052565b6000815180845260005b81811015610ade57602081850181015186830182015201610ac2565b506000602082860101526020601f19601f83011685010191505092915050565b805182526020810151602083015260006040820151610b206040850182610aa4565b5060018060a01b0360608301511660608401526080820151608084015260a082015160e060a0850152610b5660e0850182610ab8565b905060c083015184820360c0860152610b6f8282610ab8565b95945050505050565b600060208083016020845280855180835260408601915060408160051b87010192506020870160005b82811015610bcf57603f19888603018452610bbd858351610afe565b94509285019290850190600101610ba1565b5092979650505050505050565b60008060408385031215610bef57600080fd5b50508035926020909101359150565b602081526000610c116020830184610afe565b9392505050565b600060208284031215610c2a57600080fd5b815160068110610c1157600080fd5b858152600060098610610c4e57610c4e610a8e565b5060f89490941b602085015260609290921b6bffffffffffffffffffffffff1916602184015260358301526055820152607501919050565b634e487b7160e01b600052604160045260246000fd5b600181811c90821680610cb057607f821691505b602082108103610cd057634e487b7160e01b600052602260045260246000fd5b50919050565b601f821115610d22576000816000526020600020601f850160051c81016020861015610cff5750805b601f850160051c820191505b81811015610d1e57828155600101610d0b565b5050505b505050565b815167ffffffffffffffff811115610d4157610d41610c86565b610d5581610d4f8454610c9c565b84610cd6565b602080601f831160018114610d8a5760008415610d725750858301515b600019600386901b1c1916600185901b178555610d1e565b600085815260208120601f198616915b82811015610db957888601518255948401946001909101908401610d9a565b5085821015610dd75787850151600019600388901b60f8161c191681555b5050505050600190811b01905550565b81835281816020850137506000828201602090810191909152601f909101601f19169091010190565b610e1a8188610aa4565b856020820152608060408201526000610e37608083018688610de7565b8281036060840152610e4a818587610de7565b9998505050505050505050565b634e487b7160e01b600052603260045260246000fd5b6040810160068410610e8157610e81610a8e565b838252610c116020830184610aa456fea2646970667358221220a973a7ba6c4c67d4b340b78fbcdccdcab5772088ea7a9a06fdfd9ffce5bddb7264736f6c63430008180033",
  "linkReferences": {},
  "deployedLinkReferences": {}
}